:10000E0012006D750A05E4F50985090A7F0A7E005E
:10001E001200840509E509C3946440ED750964E591
:10002E0009D3940040E085090A7F0A7E00120084FD
:04003E00150980EB35
:03000B00020042AE
:10004200C0E0C0F0C0D0758A9C758CFF0508E50839
:1000520075F0648485F008E508C3950A5004D2A1BE
:0B0062008002C2A1D0D0D0F0D0E0326C
:10008400EF1FAC0670011E4C600A7D027CEFDCFEA3
:04009400DDFC80EC23
:010098002245
:10006D005389F0438901758A9C758CFFC28DD28CA2
:07007D00D2A9D2AFC2B922E3
:0300000002009962
:0C009900787FE4F6D8FD75810A02000EA5
:00000001FF
