:1002F10012035C7515051202908F14E514640170E8
:10030100230513531303E5137002F515E513B40127
:100311000375151EE513B4020375153CE513B4030B
:1003210003751564E513FD7C007F0112022380C66D
:03000B00020331BC
:10033100C0E0C0F0C0D0758A9C758CFF0512E51233
:1003410075F0648485F012E512C395155004D290BE
:0B0351008002C290D0D0D0F0D0E0328B
:10037300EF1FAC0670011E4C600A7D027CEFDCFEB1
:04038300DDFC80EC31
:010387002253
:10029000E4F51720B1137F14FE12037330B1FD7F14
:1002A000147E0012037375170120B0147F147E00B2
:1002B00012037330B0FD7F147E00120373751702B2
:1002C00020B2147F147E0012037330B2FD7F147EBF
:1002D0000012037375170320B3147F147E001203FA
:1002E0007330B3FD7F147E00120373751704AF17CC
:0102F00022EB
:10000E00E4F5167590FFC2932097137F14FE12032A
:10001E00733097FD7F147E001203737516012096C0
:10002E00147F147E001203733096FD7F147E00122F
:10003E0003737516052095147F147E00120373301A
:10004E0095FD7F147E001203737516092094147F9C
:10005E00147E001203733094FD7F147E001203731E
:10006E0075160D7590FFC2922097147F147E0012A4
:10007E0003733097FD7F147E0012037375160220F2
:10008E0096147F147E001203733096FD7F147E004B
:10009E001203737516062095147F147E00120373D7
:1000AE003095FD7F147E0012037375160A2094148A
:1000BE007F147E001203733094FD7F147E001203B2
:1000CE007375160E7590FFC2912097147F147E00E3
:1000DE001203733097FD7F147E001203737516039F
:1000EE002096147F147E001203733096FD7F147ECB
:1000FE00001203737516072095147F147E001203E9
:10010E00733095FD7F147E0012037375160B2094C9
:10011E00147F147E001203733094FD7F147E001240
:10012E00037375160F7590FFC2902097147F147E7F
:10013E00001203733097FD7F147E00120373751641
:10014E00042096147F147E001203733096FD7F14E4
:10015E007E001203737516082095147F147E00120C
:10016E0003733095FD7F147E0012037375160C20F9
:10017E0094147F147E001203733094FD7F147E005E
:08018E00120373751610AF1681
:010196002246
:10035C005389F0438901758A9C758CFFC28DD28CB0
:07036C00D2A9D2AFC2B922F1
:0C0388000A083F065B4F666D7D077F6F23
:10022300EF14B40800505490023875F003A4C5834A
:1002330025F0C583730202500202540202580202DF
:100243005C020260020268020270020278D2A48099
:100253000ED2A48012D2A48016D2A4801AC2A4D231
:10026300A3D2A28016C2A4D2A3C2A2800EC2A4C2E9
:10027300A3D2A28006C2A4C2A3C2A274082DF8E628
:0D028300F5807F017E00120373E4F58022F8
:0300000002019763
:0C019700787FE4F6D8FD7581170201DEC8
:1001A3000202F1E493A3F8E493A34003F68001F27F
:1001B30008DFF48029E493A3F85407240CC8C3335D
:1001C300C4540F4420C8834004F456800146F6DF2C
:1001D300E4800B0102040810204080900388E47E31
:1001E300019360BCA3FF543F30E509541FFEE49321
:1001F300A360010ECF54C025E060A840B8E493A3E8
:10020300FAE493A3F8E493A3C8C582C8CAC583CA12
:10021300F0A3C8C582C8CAC583CADFE9DEE780BECA
:010394000068
:00000001FF
