:10000E001203C112042E8F39E539B4010CE53A7092
:10001E00047F0180027F008F3AE539B40207E4F5D0
:10002E003FF53DF53BE53964037029AD3FFF120303
:10003E00637F057E001203EEAD3D7F011203637FE9
:10004E00057E001203EEAD3B7F021203637F057E39
:10005E00001203EEE539B40415E4FF1202E38F3FFC
:10006E007F011202E38F3D7F021202E38F3BE53FD9
:10007E0075F00A84FD7C007F01120403E53F75F0E4
:10008E000A84E5F0FD7C007F021204037D0B7C00E8
:10009E007F03120403E53D75F00A84FD7C007F04A6
:1000AE00120403E53D75F00A84E5F0FD7C007F0542
:1000BE001204037D0B7C007F06120403E53B75F0F2
:1000CE000A84FD7C007F07120403E53B75F00A8469
:0D00DE00E5F0FD7C007F0812040302001114
:10033C00E53A6022053BE53BC394644019E4F53B88
:10034C00053DE53D943C400EE4F53D053FE53F940D
:07035C003C4003E4F53F22E1
:03000B000200EB05
:1000EB00C0E0C0F0C083C082C0D075D000C000C0DB
:0D00FB0001C002C003C004C005C006C0075C
:10010800758A18758CFC0534E53470020533C39480
:1001180014E533940040097533007534001202AABF
:100128000536E53670020535C39402E5359400407E
:10013800097535007536001203850538E5387002F3
:100148000537C3940AE537940040097537007538B8
:040158000012033C52
:10015C00D007D006D005D004D003D002D001D000F7
:0B016C00D0D0D082D083D0F0D0E032A1
:0C026C00023F0000023D0000023B0000C9
:1003EE00EF1FAC0670011E4C600A7D027CEFDCFE36
:0403FE00DDFC80ECB6
:0104020022D7
:05042E00AF43E4F543BB
:0104330022A6
:1003D800E4FF20B1010F20B0027F0220B2027F03A8
:0503E80020B3027F04B8
:0103ED0022ED
:1002AA008542411203D88F42E541B40107E5427005
:1002BA0003754301E541B40207E542700375430241
:1002CA00E541B40307E5427003754303E541B4040D
:0802DA0007E5427003754304BF
:0102E20022F9
:100278001809003F0006005B004F0066006D007D16
:100288000007007F006F0000004012210000000AF4
:10029800000A000A000A000A000A000A0000010811
:0102A8000154
:0C040300EF25E02421F8A60408A605223D
:10020300E4F580EF14B40800505490021B75F0031A
:10021300A4C58325F0C583730202330202370202A9
:100223003B02023F02024302024B02025302025B01
:10023300D2A4800ED2A48012D2A48016D2A4801A93
:10024300C2A4D2A3D2A28016C2A4D2A3C2A2800EF9
:10025300C2A4C2A3D2A28006C2A4C2A3C2A2ED2595
:09026300E02409F808E6F5802208
:10038500E50825E02421F8E6FC08E6FDAF081202A1
:0D039500030508E508C3940940037508013D
:0103A2002238
:1003C1005389F0438901758A18758CFCC28DD28CD2
:0703D100D2A9D2AFC2B9228C
:100363008F448D451204257FA012031312040FAF8F
:100373004412031312040FAF4512031312040F02A6
:02038300000375
:0202E3008F4446
:1002E5001204257FA012031312040FAF4412031347
:1002F50012040F1204257FA112031312040F120317
:0D030500A38F457F0112041B120003AF45BA
:0103120022C8
:09042500D2A0D2A1C2A0C2A12202
:07000300C2A0D2A1D2A0228D
:02031300AD0734
:10031500E4FB7E007480A803088006CEA2E713CE16
:1003250013D8F8FFEDF582EF558224FF92A0D2A1F4
:06033500C2A10BBB08DCB5
:01033B00229F
:1003A300E4FFD2A0FED2A130A00DA806748008807D
:0D03B30002C313D8FC4207C2A10EBE08E829
:0103C000221A
:0A041B00EF24FF92A0D2A1C2A1229B
:0B040F00D2A0D2A1A2A0E433FFC2A142
:01041A0022BF
:0300000002017783
:0C017700787FE4F6D8FD7581450201BEDA
:1001830002000EE493A3F8E493A34003F68001F284
:1001930008DFF48029E493A3F85407240CC8C3337D
:1001A300C4540F4420C8834004F456800146F6DF4C
:1001B300E4800B010204081020408090026CE47E6E
:1001C300019360BCA3FF543F30E509541FFEE49341
:1001D300A360010ECF54C025E060A840B8E493A308
:1001E300FAE493A3F8E493A3C8C582C8CAC583CA33
:1001F300F0A3C8C582C8CAC583CADFE9DEE780BEEB
:0102A9000054
:00000001FF
